:100000000C9472000C948B000C948B000C948B005D
:100010000C948B000C948B000C948B000C948B0034
:100020000C948B000C948B000C948B000C948B0024
:100030000C948B000C948B000C948B000C948B0014
:100040000C948B000C948B000C948B000C948B0004
:100050000C948B000C948B000C948B000C948B00F4
:100060000C948B000C948B000C948B000C948B00E4
:100070000C948B000C948B000C948B000C948B00D4
:100080000C948B000C948B000C948B000C948B00C4
:100090000C948B000C948B000C948B000C948B00B4
:1000A0000C948B000C948B000C948B000C948B00A4
:1000B0000C948B000C948B000C948B000C948B0094
:1000C0000C948B000C948B000C948B000C948B0084
:1000D0000C948B000C948B000C948B000C948B0074
:1000E0000C948B0011241FBECFEFD1E2DEBFCDBF39
:1000F00000E00CBF12E0A0E0B2E0E2E6F1E000E0D8
:100100000BBF02C007900D92A830B107D9F70E942B
:100110008D000C94AF000C9400000F931F93CF93AD
:10012000DF938FEF84B9A0E8B0E0E1E8F0E046E8C3
:1001300050E027E833E108E810E08CE39FE06C91A1
:10014000626C6C93608168616083608161606083D0
:10015000EA0139832883E80199838883F0CFF894F2
:02016000FFCFCF
:08016200870087008700870079
:00000001FF
