:100000000C9473000C9411070C943C070C94670734
:100010000C9492070C94BD070C94E8070C941308F9
:100020000C943E080C94A4000C94A4000C94A4001E
:100030000C94A4000C9416050C94A4000C94A40039
:100040000C94A4000C94A4000C94A4000C94A400A0
:100050000C94A4000C94A4000C94A4000C94A40090
:100060000C94A4000C94A4000C94A4000C94A40080
:100070000C94A4000C94A4000C94A4000C94A40070
:100080000C94A4000C94A4000C94A4000C94A40060
:100090000C94A4000C94A4000C94A4000C94A40050
:1000A0000C94A4000C94A4000C94A4000C94A40040
:1000B0000C94A4000C94A4000C94A4000C94A40030
:1000C0000C94A4000C94A4000C94A4000C94A40020
:1000D0000C94A4000C94A4000C94A4000C94A40010
:1000E0000C94A400560F11241FBECFEFD1E2DEBF47
:1000F000CDBF00E00CBF12E0A0E0B2E0EEE0F3E222
:1001000000E00BBF02C007900D92AE3BB107D9F7DC
:1001100012E0AEEBB2E001C01D92A53EB107E1F7DF
:1001200010E000E0C6EED0E040E006C022974109B2
:10013000FE014BBF0E948111C43ED1074007B1F7B9
:100140000E94510F0C9485110C940000662309F055
:10015000B8C090E0FC01E858FD4F2081253609F435
:1001600050C0263640F4233641F12436C0F52236FD
:1001700009F05EC110C0283609F467C0293620F4A2
:10018000273609F055C14FC02A3609F472C02C3603
:1001900009F04EC182C024B1FC01EE0FFF1FE050F8
:1001A000FE4F81E090E0008002C0880F991F0A9402
:1001B000E2F78095822384B9089527B1FC01EE0F00
:1001C000FF1FE050FE4F81E090E0008002C0880FEA
:1001D000991F0A94E2F78095822387B908952AB17E
:1001E000FC01EE0FFF1FE050FE4F81E090E0008029
:1001F00002C0880F991F0A94E2F7809582238AB97A
:1002000008952DB1FC01EE0FFF1FE050FE4F81E07D
:1002100090E0008002C0880F991F0A94E2F7809551
:1002200082238DB9089523B3FC01EE0FFF1FE05028
:10023000FE4F81E090E0008002C0880F991F0A9471
:10024000E2F78095822383BB0895E1E0F1E020810D
:10025000DC01AA0FBB1FA050BE4F81E090E00C90C4
:1002600002C0880F991F0A94E2F780958223808349
:100270000895E4E0F1E02081DC01AA0FBB1FA0504B
:10028000BE4F81E090E00C9002C0880F991F0A9445
:10029000E2F78095822380830895EAE0F1E02081EF
:1002A000DC01AA0FBB1FA050BE4F81E090E00C9074
:1002B00002C0880F991F0A94E2F7809582238083F9
:1002C000089590E0FC01E858FD4F2081253609F49F
:1002D00050C0263640F4233641F12436C0F522368C
:1002E00009F0A6C010C0283609F467C0293620F4EA
:1002F000273609F09DC04FC02A3609F472C02C364B
:1003000009F096C082C044B1FC01EE0FFF1FE0501F
:10031000FE4F21E030E0C901008002C0880F991F24
:100320000A94E2F7842B84B9089547B1FC01EE0FDB
:10033000FF1FE050FE4F21E030E0C901008002C005
:10034000880F991F0A94E2F7842B87B908954AB160
:10035000FC01EE0FFF1FE050FE4F21E030E0C9012D
:10036000008002C0880F991F0A94E2F7842B8AB993
:1003700008954DB1FC01EE0FFF1FE050FE4F21E04C
:1003800030E0C901008002C0880F991F0A94E2F78B
:10039000842B8DB9089543B3FC01EE0FFF1FE0508D
:1003A000FE4F21E030E0C901008002C0880F991F94
:1003B0000A94E2F7842B83BB0895E1E0F1E04081E9
:1003C000DC01AA0FBB1FA050BE4F21E030E0C901E5
:1003D0000C9002C0880F991F0A94E2F7842B808347
:1003E0000895E4E0F1E04081DC01AA0FBB1FA050BA
:1003F000BE4F21E030E0C9010C9002C0880F991F68
:100400000A94E2F7842B80830895EAE0F1E04081CA
:10041000DC01AA0FBB1FA050BE4F21E030E0C90194
:100420000C9002C0880F991F0A94E2F7842B8083F6
:100430000895662309F0B8C090E0FC01E858FD4F2C
:100440002081253609F450C0263640F4233641F188
:100450002436C0F5223609F05EC110C0283609F4F2
:1004600067C0293620F4273609F055C14FC02A3617
:1004700009F472C02C3609F04EC182C025B1FC01CE
:10048000EE0FFF1FE050FE4F81E090E0008002C0C1
:10049000880F991F0A94E2F78095822385B9089501
:1004A00025B1FC01EE0FFF1FE050FE4F81E090E010
:1004B000008002C0880F991F0A94E2F7809582237A
:1004C00085B908952BB1FC01EE0FFF1FE050FE4FE0
:1004D00081E090E0008002C0880F991F0A94E2F743
:1004E000809582238BB908952EB1FC01EE0FFF1F7A
:1004F000E050FE4F81E090E0008002C0880F991F1D
:100500000A94E2F7809582238EB9089524B3FC0102
:10051000EE0FFF1FE050FE4F81E090E0008002C030
:10052000880F991F0A94E2F78095822384BB08956F
:10053000E2E0F1E02081DC01AA0FBB1FA050BE4F1A
:1005400081E090E00C9002C0880F991F0A94E2F7B6
:100550008095822380830895E5E0F1E02081DC012D
:10056000AA0FBB1FA050BE4F81E090E00C9002C0CC
:10057000880F991F0A94E2F780958223808308955B
:10058000EBE0F1E02081DC01AA0FBB1FA050BE4FC1
:1005900081E090E00C9002C0880F991F0A94E2F766
:1005A000809582238083089590E0FC01E858FD4FF8
:1005B0002081253609F450C0263640F4233641F117
:1005C0002436C0F5223609F0A6C010C0283609F43A
:1005D00067C0293620F4273609F09DC04FC02A365F
:1005E00009F472C02C3609F096C082C045B1FC01F6
:1005F000EE0FFF1FE050FE4F21E030E0C901008008
:1006000002C0880F991F0A94E2F7842B85B90895D8
:1006100048B1FC01EE0FFF1FE050FE4F21E030E03B
:10062000C901008002C0880F991F0A94E2F7842B49
:1006300088B908954BB1FC01EE0FFF1FE050FE4F4B
:1006400021E030E0C901008002C0880F991F0A94A0
:10065000E2F7842B8BB908954EB1FC01EE0FFF1F1A
:10066000E050FE4F21E030E0C901008002C0880F59
:10067000991F0A94E2F7842B8EB9089544B3FC01C4
:10068000EE0FFF1FE050FE4F21E030E0C901008077
:1006900002C0880F991F0A94E2F7842B84BB089547
:1006A000E2E0F1E04081DC01AA0FBB1FA050BE4F89
:1006B00021E030E0C9010C9002C0880F991F0A9414
:1006C000E2F7842B80830895E5E0F1E04081DC01CE
:1006D000AA0FBB1FA050BE4F21E030E0C9010C9013
:1006E00002C0880F991F0A94E2F7842B8083089533
:1006F000EBE0F1E04081DC01AA0FBB1FA050BE4F30
:1007000021E030E0C9010C9002C0880F991F0A94C3
:10071000E2F7842B8083089528E732E0280F311D0B
:10072000F90180818536D9F0863638F4833699F020
:10073000843698F48236F9F40CC08836A1F08936F4
:1007400018F48736C1F40DC08A3681F08C3699F4DE
:1007500010C083B1089586B1089589B108958CB110
:10076000089582B308958091000108958091030156
:1007700008958091090108950E940D102AEC37E335
:100780004BED5BE30E949B1020E030E040E05FE334
:100790000E949B100E94E10F08950E940D102BE70C
:1007A00034E14EE25EE30E949B1020E030E040E046
:1007B0005FE30E949B100E94E10F089580E4809304
:1007C0007C0086E880937A0008950F931F93CF935F
:1007D000DF938C010E94DE03CCE7D0E080E48883C5
:1007E000EAE7F0E08081806880832881C80168E0C2
:1007F00070E00E941D11282B2883808180688083EF
:10080000808180648083808186FDFDCF2091780087
:1008100030917900822F932FDF91CF911F910F910B
:100820000895893009F459C08A3098F4853009F464
:1008300066C0863038F4823009F472C0843009F022
:10084000E5C0B2C0863009F4B8C0873009F0DEC018
:10085000C9C08C3019F18D3030F48A3081F18B3081
:1008600009F0D4C00AC08D3209F480C08E3209F478
:1008700068C08D3009F0CAC08EC0259AE0E8F0E06B
:10088000808189688083E1E8F0E0808183608083F3
:1008900070E070938900609388000895269AE0E8DC
:1008A000F0E0808189628083E1E8F0E0808183600C
:1008B000808370E070938B0060938A000895249A7F
:1008C000E0EBF0E0808183688083E1EBF0E0808101
:1008D000816080836093B3000895E1E0F1E080815E
:1008E00080648083E0EBF0E0808183628083E1EBD1
:1008F000F0E08081816080836093B40008956B9AFA
:10090000E0E9F0E0808189688083E1E9F0E08081BE
:100910008160808370E070939900609398000895DF
:100920006C9AE0E9F0E0808189628083E1E9F0E09F
:1009300080818160808370E070939B0060939A0057
:100940000895EAE0F1E0808188608083E0E2F1E0F0
:10095000808189688083E1E2F1E080818160808329
:1009600070E070932901609328010895EAE0F1E0B6
:10097000808180618083E0E2F1E080818962808310
:10098000E1E2F1E080818160808370E070932B016F
:1009900060932A010895279A84B5816884BD85B53E
:1009A000816085BD67BD08959D9A84B5816284BDCF
:1009B00085B5816085BD68BD0895E1E0F1E0808185
:1009C00088608083E0EAF0E0808189688083E1EAE2
:1009D000F0E080818160808370E07093A900609373
:1009E000A8000895E1E0F1E0808180618083E0EA81
:1009F000F0E0808189628083E1EAF0E080818160BB
:100A0000808370E07093AB006093AA000895F8941F
:100A10002091BE023091BF024091C0025091C102AC
:100A20007894622F732F842F952F08951F920F9221
:100A30000FB60F9211248F939F93AF93BF93809122
:100A4000BE029091BF02A091C002B091C102019676
:100A5000A11DB11D8093BE029093BF02A093C0025E
:100A6000B093C102BF91AF919F918F910F900FBE34
:100A70000F901F901895E1EBF0E080818A608083F1
:100A80008DE78093B300E0E7F0E0808182608083AF
:100A9000789408959B01AC0161157105810591055C
:100AA000A1F060E070E089EF90E00197F1F700C0FD
:100AB00000006F5F7F4FCB01AA2797FDA095BA2F4B
:100AC00082179307A407B50770F308959B01AC0143
:100AD000611571058105910579F060E070E0000015
:100AE0006F5F7F4FCB01AA2797FDA095BA2F821782
:100AF0009307A407B50798F308952F923F924F925A
:100B00005F926F927F928F929F92AF92BF92CF929D
:100B1000DF92EF92FF920F931F93DF93CF93CDB7A6
:100B2000DEB7DC01CB0139014A0117012801EE884B
:100B3000FF88088D198DEA18FB080C091D099C0116
:100B4000AD012619370948095909C801B7010E94A2
:100B5000FE10A201910126193709480959090E947E
:100B600030112A0D3B1D4C1D5D1D622F732F842FEC
:100B7000952FCF91DF911F910F91FF90EF90DF9014
:100B8000CF90BF90AF909F908F907F906F905F902D
:100B90004F903F902F900895EF92FF920F931F93E5
:100BA000DC01CB01E816F9060A071B075CF0E22E10
:100BB000F32E042F152FE816F9060A071B0714F465
:100BC0007C018D016E2D7F2D802F912F1F910F9114
:100BD000FF90EF90089578947093C3026093C202DF
:100BE0008330910509F47DC08430910554F481303F
:100BF0009105C9F1823091050CF054C0009791F035
:100C00000BC18530910509F4AAC0853091050CF41B
:100C100087C08630910509F4C1C08730910509F07D
:100C2000FBC0DBC0E89A4330510561F04430510508
:100C300079F04230510591F4E9E6F0E0808183607B
:100C400080830895E9E6F0E08081826080830895E2
:100C5000E9E6F0E08081816080830895E9E6F0E0D4
:100C6000808180830895E99A4330510561F04430D2
:100C7000510569F04230510581F4E9E6F0E08081E8
:100C80008C608083089588E0809369000895E9E688
:100C9000F0E08081846080830895E9E6F0E080815F
:100CA00080830895EA9A4330510561F0443051053C
:100CB00069F04230510581F4E9E6F0E0808180631B
:100CC0008083089580E2809369000895E9E6F0E06A
:100CD0008081806180830895E9E6F0E080818083EF
:100CE0000895EB9A4330510561F04430510569F0A5
:100CF0004230510581F4E9E6F0E08081806C808328
:100D0000089580E8809369000895E9E6F0E0808125
:100D1000806480830895E9E6F0E08081808308950F
:100D2000EC9A4330510561F04430510569F042308E
:100D3000510581F4EAE6F0E08081836080830895C4
:100D400082E080936A000895EAE6F0E080818160A5
:100D500080830895EAE6F0E0808180830895ED9A2B
:100D60004330510561F04430510569F0423051057E
:100D700081F4EAE6F0E080818C608083089588E069
:100D800080936A000895EAE6F0E0808184608083C1
:100D90000895EAE6F0E0808180830895EE9A43307A
:100DA000510561F04430510569F04230510581F43C
:100DB000EAE6F0E0808180638083089580E280939A
:100DC0006A000895EAE6F0E08081806180830895FA
:100DD000EAE6F0E0808180830895EF9A4330510580
:100DE00061F04430510569F04230510581F4EAE682
:100DF000F0E08081806C8083089580E880936A00B1
:100E00000895EAE6F0E08081806480830895EAE650
:100E1000F0E0808180830895E9E6F0E080818083BE
:100E200008951F920F920FB60F920BB60F921124D6
:100E30002F933F934F935F936F937F938F939F93E2
:100E4000AF93BF93EF93FF93E091C202F091C3027F
:100E50001995FF91EF91BF91AF919F918F917F91E4
:100E60006F915F914F913F912F910F900BBE0F901B
:100E70000FBE0F901F9018951F920F920FB60F92F2
:100E80000BB60F9211242F933F934F935F936F9361
:100E90007F938F939F93AF93BF93EF93FF93E091D3
:100EA000C202F091C3021995FF91EF91BF91AF91EA
:100EB0009F918F917F916F915F914F913F912F9172
:100EC0000F900BBE0F900FBE0F901F9018951F92A2
:100ED0000F920FB60F920BB60F9211242F933F93E0
:100EE0004F935F936F937F938F939F93AF93BF9332
:100EF000EF93FF93E091C202F091C3021995FF9125
:100F0000EF91BF91AF919F918F917F916F915F9181
:100F10004F913F912F910F900BBE0F900FBE0F90EE
:100F20001F9018951F920F920FB60F920BB60F924B
:100F300011242F933F934F935F936F937F938F93DE
:100F40009F93AF93BF93EF93FF93E091C202F09111
:100F5000C3021995FF91EF91BF91AF919F918F912E
:100F60007F916F915F914F913F912F910F900BBEA9
:100F70000F900FBE0F901F9018951F920F920FB6F3
:100F80000F920BB60F9211242F933F934F935F93C1
:100F90006F937F938F939F93AF93BF93EF93FF9341
:100FA000E091C202F091C3021995FF91EF91BF91B8
:100FB000AF919F918F917F916F915F914F913F91F1
:100FC0002F910F900BBE0F900FBE0F901F90189592
:100FD0001F920F920FB60F920BB60F9211242F9300
:100FE0003F934F935F936F937F938F939F93AF93B1
:100FF000BF93EF93FF93E091C202F091C302199562
:10100000FF91EF91BF91AF919F918F917F916F91E0
:101010005F914F913F912F910F900BBE0F900FBE9C
:101020000F901F9018951F920F920FB60F920BB64C
:101030000F9211242F933F934F935F936F937F935E
:101040008F939F93AF93BF93EF93FF93E091C2026F
:10105000F091C3021995FF91EF91BF91AF919F91CC
:101060008F917F916F915F914F913F912F910F9051
:101070000BBE0F900FBE0F901F9018951F920F92EE
:101080000FB60F920BB60F9211242F933F934F93ED
:101090005F936F937F938F939F93AF93BF93EF93E0
:1010A000FF93E091C202F091C3021995FF91EF9175
:1010B000BF91AF919F918F917F916F915F914F9170
:1010C0003F912F910F900BBE0F900FBE0F901F906E
:1010D00018951F93CF93DF931092C5001CE01093D7
:1010E000C40088E18093C1008EE08093C2008091AB
:1010F000D40261E00E94A6008091D90261E00E94C2
:10110000A6008091DD0261E00E94A6008091E102CC
:1011100061E00E94A6008091D40260E00E94190262
:101120008091D90260E00E9419028091DD0260E0A6
:101130000E9419028091E10260E00E9419028FE191
:101140009EE49093C9028093C8022BE02093CA02C8
:10115000259AA0E8B0E02C91226C2C93E1E8F0E015
:10116000208128612083208121602083C6E8D0E08F
:10117000998388839093CC028093CB021093CD0205
:10118000269A2C9122632C932081296120839983B4
:1011900088839093CF028093CE0225E02093D002E3
:1011A0006B9AA0E9B0E02C91226C2C93E1E9F0E07D
:1011B000208129612083C6E9D0E0998388839093B8
:1011C000D2028093D10222E02093D3026C9A2C9118
:1011D00022632C9320812961208399838883DF9166
:1011E000CF911F9108952F923F924F925F926F92ED
:1011F0007F928F929F92AF92BF92CF92DF92EF92A7
:10120000FF920F931F93DF93CF93CDB7DEB7609715
:101210000FB6F894DEBF0FBECDBF8AEA90E0909380
:10122000BD028093BC020091C8021091C902C8019E
:1012300068E270E00E941D116B01EE24D7FCE0947F
:10124000FE2CB801882777FD8095982F0E940F10FB
:1012500023E333E34BE051E40E94740F0E94DC0F60
:101260006C197D098E099F092091B4023091B50255
:1012700026553F4F442737FD4095542F0E94FE10BE
:101280002EE031E040E050E00E9430112C0D3D1D79
:101290004E1D5F1DC80199230CF4079695958795FF
:1012A0009595879595958795AA2797FDA095BA2F2F
:1012B00082179307A407B5074CF0DA01C9012C1572
:1012C0003D054E055F0514F4D701C6012091CA0201
:1012D000283009F47AC0293090F42530D1F1263035
:1012E00038F4223009F441C0233009F09DC049C0D0
:1012F000263009F452C0273009F096C05AC02C326B
:1013000009F487C02D3230F42B3059F02C3009F01D
:101310008BC013C02D3209F470C02E3209F084C086
:1013200060C02091860030918700A901481B590BAD
:10133000509389004093880077C0209186003091B7
:101340008700F901E81BF90BF0938B00E0938A000A
:101350006BC02091960030919700A901481B590B52
:1013600050939900409398005FC02091960030916F
:101370009700F901E81BF90BF0939B00E0939A00AA
:1013800053C02091960030919700A901481B590B3A
:1013900050939D0040939C0047C02091A60030913F
:1013A000A700F901E81BF90BF093A900E093A8004E
:1013B0003BC02091A6003091A700A901481B590B02
:1013C0005093AB004093AA002FC02091A60030910B
:1013D000A700F901E81BF90BF093AD00E093AC0016
:1013E00023C02091260130912701A901481B590BE8
:1013F000509329014093280117C020912601309174
:101400002701F901E81BF90BF0932B01E0932A0166
:101410000BC02091260130912701A901481B590BCF
:1014200050932D0140932C010091CB021091CC02DE
:10143000C80168E270E00E941D116B01EE24D7FC28
:10144000E094FE2CB801882777FD8095982F0E94A4
:101450000F1023E333E34BE051E40E94740F0E942A
:10146000DC0F6C197D098E099F094091BC025091D7
:10147000BD022091B6023091B702240F351F4427D8
:1014800037FD4095542F0E94FE102EE031E040E0E1
:1014900050E00E9430112C0D3D1D4E1D5F1DC801F6
:1014A00099230CF40796959587959595879595952D
:1014B0008795AA2797FDA095BA2F82179307A407AF
:1014C000B5074CF0DA01C9012C153D054E055F0545
:1014D00014F4D701C6012091CD02283009F47AC056
:1014E000293090F42530D1F1263038F4223009F437
:1014F00041C0233009F09DC049C0263009F452C0D4
:10150000273009F096C05AC02C3209F487C02D321A
:1015100030F42B3059F02C3009F08BC013C02D3231
:1015200009F470C02E3209F084C060C0209186009A
:1015300030918700F901E81BF90BF0938900E093E3
:10154000880077C02091860030918700A901481B50
:10155000590B50938B0040938A006BC020919600EA
:1015600030919700F901E81BF90BF0939900E09393
:1015700098005FC02091960030919700A901481B08
:10158000590B50939B0040939A0053C020919600B2
:1015900030919700F901E81BF90BF0939D00E0935F
:1015A0009C0047C02091A6003091A700A901481BCC
:1015B000590B5093A9004093A8003BC02091A6006E
:1015C0003091A700F901E81BF90BF093AB00E09311
:1015D000AA002FC02091A6003091A700A901481BA6
:1015E000590B5093AD004093AC0023C020912601CD
:1015F00030912701F901E81BF90BF0932901E093E1
:10160000280117C02091260130912701A901481B0C
:10161000590B50932B0140932A010BC020912601B6
:1016200030912701F901E81BF90BF0932D01E093AC
:101630002C010091CE021091CF02C80168E270E047
:101640000E941D116B01EE24D7FCE094FE2CB80122
:10165000882777FD8095982F0E940F1023E333E3AE
:101660004BE051E40E94740F0E94DC0F6C197D095D
:101670008E099F094091BC025091BD022091B80291
:101680003091B902240F351F442737FD4095542F60
:101690000E94FE102EE031E040E050E00E94301148
:1016A0002C0D3D1D4E1D5F1DC80199230CF407969E
:1016B000959587959595879595958795AA2797FDF3
:1016C000A095BA2F82179307A407B5074CF0DA014B
:1016D000C9012C153D054E055F0514F4D701C6015F
:1016E0002091D002283009F47AC0293090F42530B6
:1016F000D1F1263038F4223009F441C0233009F00A
:101700009DC049C0263009F452C0273009F096C068
:101710005AC02C3209F487C02D3230F42B3059F0E6
:101720002C3009F08BC013C02D3209F470C02E325A
:1017300009F084C060C02091860030918700A90123
:10174000481B590B509389004093880077C0209123
:10175000860030918700F901E81BF90BF0938B00AC
:10176000E0938A006BC02091960030919700A90108
:10177000481B590B50939900409398005FC02091EB
:10178000960030919700F901E81BF90BF0939B004C
:10179000E0939A0053C02091960030919700A901E0
:1017A000481B590B50939D0040939C0047C02091CB
:1017B000A6003091A700F901E81BF90BF093A900EE
:1017C000E093A8003BC02091A6003091A700A9019A
:1017D000481B590B5093AB004093AA002FC0209197
:1017E000A6003091A700F901E81BF90BF093AD00BA
:1017F000E093AC0023C02091260130912701A9017C
:10180000481B590B509329014093280117C0209180
:10181000260130912701F901E81BF90BF0932B0108
:10182000E0932A010BC02091260130912701A901E4
:10183000481B590B50932D0140932C010091D1026C
:101840001091D202C80168E270E00E941D116B0184
:10185000EE24D7FCE094FE2CB801882777FD809514
:10186000982F0E940F1023E333E34BE051E40E94D2
:10187000740F0E94DC0F6C197D098E099F0940913D
:10188000BC025091BD022091BA023091BB02240FDC
:10189000351F442737FD4095542F0E94FE102EE03F
:1018A00031E040E050E00E9430112C0D3D1D4E1DF6
:1018B0005F1DC80199230CF407969595879595951A
:1018C000879595958795AA2797FDA095BA2F82179A
:1018D0009307A407B5074CF0DA01C9012C153D05A3
:1018E0004E055F0514F4D701C6012091D3022830BC
:1018F00009F47AC0293090F42530D1F1263038F43B
:10190000223009F441C0233009F09DC049C026307F
:1019100009F452C0273009F096C05AC02C3209F49D
:1019200087C02D3230F42B3059F02C3009F08BC0A9
:1019300013C02D3209F470C02E3209F084C060C08B
:101940002091860030918700F901E81BF90BF09394
:101950008900E093880077C020918600309187004D
:10196000A901481B590B50938B0040938A006BC010
:101970002091960030919700F901E81BF90BF09344
:101980009900E09398005FC02091960030919700F5
:10199000A901481B590B50939B0040939A0053C0D8
:1019A0002091960030919700F901E81BF90BF09314
:1019B0009D00E0939C0047C02091A6003091A700B5
:1019C000A901481B590B5093A9004093A8003BC0A4
:1019D0002091A6003091A700F901E81BF90BF093C4
:1019E000AB00E093AA002FC02091A6003091A70081
:1019F000A901481B590B5093AD004093AC0023C084
:101A00002091260130912701F901E81BF90BF09391
:101A10002901E093280117C0209126013091270168
:101A2000A901481B590B50932B0140932A010BC06D
:101A30002091260130912701F901E81BF90BF09361
:101A40002D01E0932C018091D602843608F49FC0CA
:101A50009091DB02943608F49AC02091DF0224367C
:101A600008F495C03091E302343608F490C0F0C019
:101A7000F2016081860FE981FA818083682F70E02E
:101A800080E090E020E030E0A9010F2EF4E6EF2E98
:101A9000F0E0FF2EF0E00F2FF0E01F2FF02D0E945E
:101AA000CC05EB81FC8180810E941104EBEDF2E01A
:101AB00080818436F0F4F1016081860FED81FE8132
:101AC0008083682F70E080E090E020E030E0A901A2
:101AD0000F2EF4E6EF2EF0E0FF2EF0E00F2FF0E0F7
:101AE0001F2FF02D0E94CC05EF81F88580810E9488
:101AF0001104F60180818436F8F4E0EEF2E06081B2
:101B0000860FE985FA858083682F70E080E090E099
:101B100020E030E0A9010F2EF4E6EF2EF0E0FF2EDA
:101B2000F0E00F2FF0E01F2FF02D0E94CC05EB8589
:101B3000FC8580810E941104F50180818436F8F4CF
:101B4000E4EEF2E06081860FED85FE858083682FEC
:101B500070E080E090E020E030E0A9010F2EF4E694
:101B6000EF2EF0E0FF2EF0E00F2FF0E01F2FF02D12
:101B70000E94CC05EF85F88980810E941104F30151
:101B8000608170E080E090E00E944A054BC00F2E1B
:101B9000F6ED8F2EF2E09F2EF02D0F2EF7ED4F2E4B
:101BA000F2E05F2EF02DA201415050405A8349834C
:101BB000C20102979C838B830F2EFFEDCF2EF2E0A4
:101BC000DF2EF02D0F2EF3EEAF2EF2E0BF2EF02D14
:101BD0000F2EFCED2F2EF2E03F2EF02DF10131976C
:101BE000FE83ED83A1014250504058874F8380EE21
:101BF00092E001979A878987E0EEF2E03297FC87BE
:101C0000EB8744EE52E0415050405E874D8784EEB2
:101C100092E00297988B8F870F2EF8ED6F2EF2E0EF
:101C20007F2EF02DF4018081843608F421CFEBED76
:101C3000F2E08081843608F439CFF6018081843661
:101C400008F434CFF5018081843608F011C12ECF1D
:101C5000853608F099C0953608F096C0253608F00C
:101C600093C0353608F090C0EFC0F2018081681B48
:101C7000E981FA81608370E080E090E024E630E062
:101C800040E050E00F2EFFEFEF2EF0E0FF2EF0E0EF
:101C90000F2FF0E01F2FF02D0E94CC05EB81FC816F
:101CA00080810E941104EBEDF2E060816536F0F076
:101CB000F1018081681BED81FE81608370E080E02E
:101CC00090E024E630E040E050E00F2EFFEFEF2EF2
:101CD000F0E0FF2EF0E00F2FF0E01F2FF02D0E941C
:101CE000CC05EF81F88580810E941104F6016081A6
:101CF0006536F8F0E0EEF2E08081681BE985FA8550
:101D0000608370E080E090E024E630E040E050E066
:101D10000F2EFFEFEF2EF0E0FF2EF0E00F2FF0E0A0
:101D20001F2FF02D0E94CC05EB85FC8580810E9441
:101D30001104F50160816536F8F0E4EEF2E080818F
:101D4000681BED85FE85608370E080E090E024E60E
:101D500030E040E050E00F2EFFEFEF2EF0E0FF2EDE
:101D6000F0E00F2FF0E01F2FF02D0E94CC05EF8543
:101D7000F88980810E941104F301608170E080E0A5
:101D800090E00E944A054BC00F2EF6ED8F2EF2E038
:101D90009F2EF02D0F2EF7ED4F2EF2E05F2EF02D3F
:101DA000A201415050405A834983C20102979C834B
:101DB0008B830F2EFFEDCF2EF2E0DF2EF02D0F2EB6
:101DC000F3EEAF2EF2E0BF2EF02D0F2EFCED2F2EF6
:101DD000F2E03F2EF02DF1013197FE83ED83A1015A
:101DE0004250504058874F8380EE92E001979A8787
:101DF0008987E0EEF2E03297FC87EB8744EE52E011
:101E0000415050405E874D8784EE92E00297988B58
:101E10008F870F2EF8ED6F2EF2E07F2EF02DF4015C
:101E20006081653608F021CFEBEDF2E080818536E8
:101E300008F039CFF6018081853608F034CFF501FE
:101E400080818536A8F02FCF8091D50264E60E946C
:101E500011048091DA0264E60E9411048091DE028E
:101E600064E60E9411048091E20264E60E9411047B
:101E700060960FB6F894DEBF0FBECDBFCF91DF9155
:101E80001F910F91FF90EF90DF90CF90BF90AF9098
:101E90009F908F907F906F905F904F903F902F908A
:101EA00008950E9469080E94F308FDCF84E08093A2
:101EB000D502E5EDF2E08EE182938DE086838FE13D
:101EC00085839AE0928780E2818789E0868781E234
:101ED0008587128217821386178685E08383808721
:101EE0008487808B948308950CD0EBC0E3D040F0BE
:101EF000DAD030F021F45F3F19F0CCC0511115C198
:101F0000CFC0F0D098F39923C9F35523B1F3951BB3
:101F1000550BBB27AA2762177307840738F09F5F0A
:101F20005F4F220F331F441FAA1FA9F333D00E2E79
:101F30003AF0E0E830D091505040E695001CCAF7E6
:101F400029D0FE2F27D0660F771F881FBB1F2617AB
:101F500037074807AB07B0E809F0BB0B802DBF017E
:101F6000FF2793585F4F2AF09E3F510568F092C0BB
:101F7000DCC05F3FECF3983EDCF386957795679580
:101F8000B795F7959F5FC9F7880F911D969587952F
:101F900097F90895E1E0660F771F881FBB1F62174E
:101FA00073078407BA0720F0621B730B840BBA0B0C
:101FB000EE1F88F7E095089504D06894B111B5C07C
:101FC000089598D088F09F5790F0B92F9927B7516E
:101FD000A0F0D1F0660F771F881F991F1AF0BA95ED
:101FE000C9F712C0B13081F09FD0B1E008959CC014
:101FF000672F782F8827B85F39F0B93FCCF38695E3
:1020000077956795B395D9F73EF49095809570953F
:1020100061957F4F8F4F9F4F0895E89409C097FBBC
:102020003EF490958095709561957F4F8F4F9F4FAF
:102030009923A9F0F92F96E9BB279395F6958795F3
:1020400077956795B795F111F8CFFAF4BB0F11F4B6
:1020500060FF1BC06F5F7F4F8F4F9F4F16C088235D
:1020600011F096E911C0772321F09EE8872F762F93
:1020700005C0662371F096E8862F70E060E02AF0D4
:102080009A95660F771F881FDAF7880F96958795C0
:1020900097F9089597F99F6780E870E060E00895E8
:1020A0009FEF80EC089500240A9416161706180670
:1020B0000906089500240A9412161306140605064C
:1020C0000895092E0394000C11F4882352F0BB0FDD
:1020D00040F4BF2B11F460FF04C06F5F7F4F8F4F40
:1020E0009F4F089557FD9058440F551F59F05F3F7B
:1020F00071F04795880F97FB991F61F09F3F79F02A
:1021000087950895121613061406551FF2CF4695AB
:10211000F1DF08C0161617061806991FF1CF86952D
:102120007105610508940895E894BB276627772711
:10213000CB0197F908950BD0C4CFB5DF28F0BADFF3
:1021400018F0952309F0A6CFABCF1124EECFCADF4C
:10215000A0F3959FD1F3950F50E0551F629FF001BA
:10216000729FBB27F00DB11D639FAA27F00DB11D13
:10217000AA1F649F6627B00DA11D661F829F22279C
:10218000B00DA11D621F739FB00DA11D621F839F23
:10219000A00D611D221F749F3327A00D611D231FF9
:1021A000849F600D211D822F762F6A2F11249F5747
:1021B00050408AF0E1F088234AF0EE0FFF1FBB1F6A
:1021C000661F771F881F91505040A9F79E3F510509
:1021D00070F060CFAACF5F3FECF3983EDCF38695BA
:1021E00077956795B795F795E7959F5FC1F7FE2BB4
:1021F000880F911D9695879597F90895629FD00154
:10220000739FF001829FE00DF11D649FE00DF11DB1
:10221000929FF00D839FF00D749FF00D659FF00D60
:102220009927729FB00DE11DF91F639FB00DE11D4D
:10223000F91FBD01CF011124089597FB092E072630
:102240000AD077FD04D027D006D000201AF470956C
:1022500061957F4F0895F6F7909581959F4F08956A
:1022600097FB092E05260ED057FD04D028D00AD0A2
:10227000001C38F450954095309521953F4F4F4FB5
:102280005F4F0895F6F790958095709561957F4F13
:102290008F4F9F4F0895AA1BBB1B51E107C0AA1F78
:1022A000BB1FA617B70710F0A61BB70B881F991FF7
:1022B0005A95A9F780959095BC01CD010895A1E2AA
:1022C0001A2EAA1BBB1BFD010DC0AA1FBB1FEE1FB0
:1022D000FF1FA217B307E407F50720F0A21BB30BFB
:1022E000E40BF50B661F771F881F991F1A9469F777
:1022F00060957095809590959B01AC01BD01CF01D3
:0E23000008950790F691E02D1994F894FFCF00
:10230E0000000100040005000500030003000400A6
:10231E00050006000400050006000700010000008D
:10232E00010000000300020001000000060007008B
:10233E000000010002000300040005000600070073
:10234E000700060005000400030002000100000063
:10235E00070002000100000007000600050004004F
:10236E000300020001000000030002000100000053
:10237E00000000000000000065656565676568681F
:10238E006868626262626A6A6868646461616161F7
:10239E0061616161636363636363636364676767FA
:1023AE006C6C6C6C6C6C6C6C626262620000000037
:0E23BE0000000000F6FFECFFD3FF05009600C4
:00000001FF
