:100000000C9472000C94B4060C94DF060C940A074E
:100010000C9435070C9460070C948B070C94B6076E
:100020000C94E1070C9493000C9493000C949300AF
:100030000C9493000C94B9040C9493000C949300CA
:100040000C9493000C9493000C9493000C949300E4
:100050000C9493000C9493000C9493000C949300D4
:100060000C9493000C9493000C9493000C949300C4
:100070000C9493000C9493000C9493000C949300B4
:100080000C9493000C9493000C9493000C949300A4
:100090000C9493000C9493000C9493000C94930094
:1000A0000C9493000C9493000C9493000C94930084
:1000B0000C9493000C9493000C9493000C94930074
:1000C0000C9493000C9493000C9493000C94930064
:1000D0000C9493000C9493000C9493000C94930054
:1000E0000C94930011241FBECFEFD1E2DEBFCDBF31
:1000F00000E00CBF12E0A0E0B2E0EAECF8E100E0C2
:100100000BBF02C007900D92AC3BB107D9F712E0CC
:10011000ACEBB2E001C01D92AC3CB107E1F70E942C
:10012000510A0C94630C0C940000662309F0B8C0CB
:1001300090E0FC01E858FD4F2081253609F450C0BD
:10014000263640F4233641F12436C0F5223609F034
:100150005EC110C0283609F467C0293620F427365E
:1001600009F055C14FC02A3609F472C02C3609F087
:100170004EC182C024B1FC01EE0FFF1FE050FE4FC4
:1001800081E090E0008002C0880F991F0A94E2F796
:100190008095822384B9089527B1FC01EE0FFF1FDB
:1001A000E050FE4F81E090E0008002C0880F991F70
:1001B0000A94E2F78095822387B908952AB1FC0159
:1001C000EE0FFF1FE050FE4F81E090E0008002C084
:1001D000880F991F0A94E2F7809582238AB90895BF
:1001E0002DB1FC01EE0FFF1FE050FE4F81E090E0CB
:1001F000008002C0880F991F0A94E2F7809582233D
:100200008DB9089523B3FC01EE0FFF1FE050FE4FA0
:1002100081E090E0008002C0880F991F0A94E2F705
:100220008095822383BB0895E1E0F1E02081DC0129
:10023000AA0FBB1FA050BE4F81E090E00C9002C0FF
:10024000880F991F0A94E2F780958223808308958E
:10025000E4E0F1E02081DC01AA0FBB1FA050BE4FFB
:1002600081E090E00C9002C0880F991F0A94E2F799
:100270008095822380830895EAE0F1E02081DC010B
:10028000AA0FBB1FA050BE4F81E090E00C9002C0AF
:10029000880F991F0A94E2F780958223808308953E
:1002A00090E0FC01E858FD4F2081253609F450C04C
:1002B000263640F4233641F12436C0F5223609F0C3
:1002C000A6C010C0283609F467C0293620F42736A6
:1002D00009F09DC04FC02A3609F472C02C3609F0CF
:1002E00096C082C044B1FC01EE0FFF1FE050FE4FEC
:1002F00021E030E0C901008002C0880F991F0A94F4
:10030000E2F7842B84B9089547B1FC01EE0FFF1F7B
:10031000E050FE4F21E030E0C901008002C0880FAC
:10032000991F0A94E2F7842B87B908954AB1FC011A
:10033000EE0FFF1FE050FE4F21E030E0C9010080CA
:1003400002C0880F991F0A94E2F7842B8AB9089596
:100350004DB1FC01EE0FFF1FE050FE4F21E030E0F9
:10036000C901008002C0880F991F0A94E2F7842B0C
:100370008DB9089543B3FC01EE0FFF1FE050FE4F0F
:1003800021E030E0C901008002C0880F991F0A9463
:10039000E2F7842B83BB0895E1E0F1E04081DC01CA
:1003A000AA0FBB1FA050BE4F21E030E0C9010C9046
:1003B00002C0880F991F0A94E2F7842B8083089566
:1003C000E4E0F1E04081DC01AA0FBB1FA050BE4F6A
:1003D00021E030E0C9010C9002C0880F991F0A94F7
:1003E000E2F7842B80830895EAE0F1E04081DC01AC
:1003F000AA0FBB1FA050BE4F21E030E0C9010C90F6
:1004000002C0880F991F0A94E2F7842B8083089515
:10041000662309F0B8C090E0FC01E858FD4F208148
:10042000253609F450C0263640F4233641F12436EF
:10043000C0F5223609F05EC110C0283609F467C045
:10044000293620F4273609F055C14FC02A3609F461
:1004500072C02C3609F04EC182C025B1FC01EE0FEE
:10046000FF1FE050FE4F81E090E0008002C0880F47
:10047000991F0A94E2F78095822385B9089525B1E2
:10048000FC01EE0FFF1FE050FE4F81E090E0008086
:1004900002C0880F991F0A94E2F78095822385B9DC
:1004A00008952BB1FC01EE0FFF1FE050FE4F81E0DD
:1004B00090E0008002C0880F991F0A94E2F78095AF
:1004C00082238BB908952EB1FC01EE0FFF1FE0507F
:1004D000FE4F81E090E0008002C0880F991F0A94CF
:1004E000E2F7809582238EB9089524B3FC01EE0FC4
:1004F000FF1FE050FE4F81E090E0008002C0880FB7
:10050000991F0A94E2F78095822384BB0895E2E064
:10051000F1E02081DC01AA0FBB1FA050BE4F81E09B
:1005200090E00C9002C0880F991F0A94E2F7809522
:10053000822380830895E5E0F1E02081DC01AA0FA9
:10054000BB1FA050BE4F81E090E00C9002C0880F0E
:10055000991F0A94E2F78095822380830895EBE047
:10056000F1E02081DC01AA0FBB1FA050BE4F81E04B
:1005700090E00C9002C0880F991F0A94E2F78095D2
:1005800082238083089590E0FC01E858FD4F20818C
:10059000253609F450C0263640F4233641F124367E
:1005A000C0F5223609F0A6C010C0283609F467C08D
:1005B000293620F4273609F09DC04FC02A3609F4A9
:1005C00072C02C3609F096C082C045B1FC01EE0F16
:1005D000FF1FE050FE4F21E030E0C901008002C063
:1005E000880F991F0A94E2F7842B85B9089548B1C2
:1005F000FC01EE0FFF1FE050FE4F21E030E0C9018B
:10060000008002C0880F991F0A94E2F7842B88B9F2
:1006100008954BB1FC01EE0FFF1FE050FE4F21E0AB
:1006200030E0C901008002C0880F991F0A94E2F7E8
:10063000842B8BB908954EB1FC01EE0FFF1FE050E3
:10064000FE4F21E030E0C901008002C0880F991FF1
:100650000A94E2F7842B8EB9089544B3FC01EE0F9F
:10066000FF1FE050FE4F21E030E0C901008002C0D2
:10067000880F991F0A94E2F7842B84BB0895E2E067
:10068000F1E04081DC01AA0FBB1FA050BE4F21E06A
:1006900030E0C9010C9002C0880F991F0A94E2F75C
:1006A000842B80830895E5E0F1E04081DC01AA0F0E
:1006B000BB1FA050BE4F21E030E0C9010C9002C02A
:1006C000880F991F0A94E2F7842B80830895EBE04A
:1006D000F1E04081DC01AA0FBB1FA050BE4F21E01A
:1006E00030E0C9010C9002C0880F991F0A94E2F70C
:1006F000842B8083089528E732E0280F311DF9010B
:1007000080818536D9F0863638F4833699F0843680
:1007100098F48236F9F40CC08836A1F0893618F4C2
:100720008736C1F40DC08A3681F08C3699F410C03A
:1007300083B1089586B1089589B108958CB1089563
:1007400082B3089580910001089580910301089576
:100750008091090108950E94EF0A2AEC37E34BEDDE
:100760005BE30E947D0B20E030E040E05FE30E940D
:100770007D0B0E94C30A08950E94EF0A2BE734E123
:100780004EE25EE30E947D0B20E030E040E05FE35C
:100790000E947D0B0E94C30A089580E480937C0030
:1007A00086E880937A0008950F931F93CF93DF9389
:1007B0008C010E94CD03CCE7D0E080E48883EAE797
:1007C000F0E08081806880832881C80168E070E063
:1007D0000E94FF0B282B2883808180688083808182
:1007E00080648083808186FDFDCF209178003091E8
:1007F0007900822F932FDF91CF911F910F91089550
:10080000893009F44AC08A3098F4853009F44EC022
:10081000863038F4823009F455C0843009F099C02C
:100820007BC0863009F47EC0873009F092C086C054
:100830008C30F1F08D3030F48A3031F18B3009F0AA
:1008400088C00AC08D3209F455C08E3209F446C002
:100850008D3009F07EC05AC089E88093800083E023
:100860008093810070E07093890060938800089500
:1008700089E28093800083E08093810070E0709330
:100880008B0060938A00089583EC8093B00081E030
:100890008093B1006093B300089583E38093B00028
:1008A00081E08093B1006093B400089589EC809357
:1008B000900081E08093910070E0709399006093C4
:1008C0009800089589E38093900081E080939100DF
:1008D00070E070939B0060939A00089589EC809378
:1008E000200181E08093210170E0709329016093E1
:1008F0002801089589E38093200181E080932101FC
:1009000070E070932B0160932A01089581EC84BDFF
:1009100081E085BD67BD089581E384BD81E085BD2B
:1009200068BD089589EC8093A00081E08093A100C8
:1009300070E07093A9006093A800089589E3809304
:10094000A00081E08093A10070E07093AB00609301
:10095000AA000895F8942091BC023091BD02409104
:10096000BE025091BF027894622F732F842F952F6F
:1009700008951F920F920FB60F9211248F939F9399
:10098000AF93BF938091BC029091BD02A091BE0233
:10099000B091BF020196A11DB11D8093BC0290933E
:1009A000BD02A093BE02B093BF02BF91AF919F91D1
:1009B0008F910F900FBE0F901F901895E1EBF0E014
:1009C00080818A6080838DE78093B300E0E7F0E068
:1009D000808182608083789408959B01AC016115C9
:1009E000710581059105A1F060E070E089EF90E06C
:1009F0000197F1F700C000006F5F7F4FCB01AA277E
:100A000097FDA095BA2F82179307A407B50770F337
:100A100008959B01AC01611571058105910579F07F
:100A200060E070E000006F5F7F4FCB01AA2797FD69
:100A3000A095BA2F82179307A407B50798F30895D6
:100A40002F923F924F925F926F927F928F929F92DE
:100A5000AF92BF92CF92DF92EF92FF920F931F93CC
:100A6000DF93CF93CDB7DEB7DC01CB0139014A016B
:100A700017012801EE88FF88088D198DEA18FB08F8
:100A80000C091D099C01AD012619370948095909AE
:100A9000C801B7010E94E00BA20191012619370994
:100AA000480959090E94120C2A0D3B1D4C1D5D1D61
:100AB000622F732F842F952FCF91DF911F910F916C
:100AC000FF90EF90DF90CF90BF90AF909F908F906E
:100AD0007F906F905F904F903F902F900895EF928E
:100AE000FF920F931F93DC01CB01E816F9060A076A
:100AF0001B075CF0E22EF32E042F152FE816F906E3
:100B00000A071B0714F47C018D016E2D7F2D802FA9
:100B1000912F1F910F91FF90EF900895789470930B
:100B2000C1026093C0028330910509F47DC0843016
:100B3000910554F481309105C9F1823091050CF092
:100B400054C0009791F00BC18530910509F4AAC0FB
:100B5000853091050CF487C08630910509F4C1C039
:100B60008730910509F0FBC0DBC0E89A433051059E
:100B700061F04430510579F04230510591F4E9E6D5
:100B8000F0E08081836080830895E9E6F0E0808171
:100B9000826080830895E9E6F0E08081816080834F
:100BA0000895E9E6F0E0808180830895E99A433072
:100BB000510561F04430510569F04230510581F42E
:100BC000E9E6F0E080818C608083089588E080937E
:100BD00069000895E9E6F0E08081846080830895EB
:100BE000E9E6F0E0808180830895EA9A4330510578
:100BF00061F04430510569F04230510581F4E9E675
:100C0000F0E0808180638083089580E280936900B2
:100C10000895E9E6F0E08081806180830895E9E647
:100C2000F0E0808180830895EB9A4330510561F0B4
:100C30004430510569F04230510581F4E9E6F0E0B5
:100C40008081806C8083089580E880936900089596
:100C5000E9E6F0E08081806480830895E9E6F0E0D1
:100C6000808180830895EC9A4330510561F04430CF
:100C7000510569F04230510581F4EAE6F0E08081E7
:100C800083608083089582E080936A000895EAE695
:100C9000F0E08081816080830895EAE6F0E0808161
:100CA00080830895ED9A4330510561F04430510539
:100CB00069F04230510581F4EAE6F0E080818C6011
:100CC0008083089588E080936A000895EAE6F0E062
:100CD0008081846080830895EAE6F0E080818083EB
:100CE0000895EE9A4330510561F04430510569F0A2
:100CF0004230510581F4EAE6F0E080818063808330
:100D0000089580E280936A000895EAE6F0E0808129
:100D1000806180830895EAE6F0E080818083089511
:100D2000EF9A4330510561F04430510569F042308B
:100D3000510581F4EAE6F0E08081806C80830895BB
:100D400080E880936A000895EAE6F0E0808180649C
:100D500080830895EAE6F0E0808180830895E9E6E3
:100D6000F0E08081808308951F920F920FB60F925A
:100D70000BB60F9211242F933F934F935F936F9372
:100D80007F938F939F93AF93BF93EF93FF93E091E4
:100D9000C002F091C1021995FF91EF91BF91AF91FF
:100DA0009F918F917F916F915F914F913F912F9183
:100DB0000F900BBE0F900FBE0F901F9018951F92B3
:100DC0000F920FB60F920BB60F9211242F933F93F1
:100DD0004F935F936F937F938F939F93AF93BF9343
:100DE000EF93FF93E091C002F091C1021995FF913A
:100DF000EF91BF91AF919F918F917F916F915F9193
:100E00004F913F912F910F900BBE0F900FBE0F90FF
:100E10001F9018951F920F920FB60F920BB60F925C
:100E200011242F933F934F935F936F937F938F93EF
:100E30009F93AF93BF93EF93FF93E091C002F09124
:100E4000C1021995FF91EF91BF91AF919F918F9141
:100E50007F916F915F914F913F912F910F900BBEBA
:100E60000F900FBE0F901F9018951F920F920FB604
:100E70000F920BB60F9211242F933F934F935F93D2
:100E80006F937F938F939F93AF93BF93EF93FF9352
:100E9000E091C002F091C1021995FF91EF91BF91CD
:100EA000AF919F918F917F916F915F914F913F9102
:100EB0002F910F900BBE0F900FBE0F901F901895A3
:100EC0001F920F920FB60F920BB60F9211242F9311
:100ED0003F934F935F936F937F938F939F93AF93C2
:100EE000BF93EF93FF93E091C002F091C102199577
:100EF000FF91EF91BF91AF919F918F917F916F91F2
:100F00005F914F913F912F910F900BBE0F900FBEAD
:100F10000F901F9018951F920F920FB60F920BB65D
:100F20000F9211242F933F934F935F936F937F936F
:100F30008F939F93AF93BF93EF93FF93E091C00282
:100F4000F091C1021995FF91EF91BF91AF919F91DF
:100F50008F917F916F915F914F913F912F910F9062
:100F60000BBE0F900FBE0F901F9018951F920F92FF
:100F70000FB60F920BB60F9211242F933F934F93FE
:100F80005F936F937F938F939F93AF93BF93EF93F1
:100F9000FF93E091C002F091C1021995FF91EF918A
:100FA000BF91AF919F918F917F916F915F914F9181
:100FB0003F912F910F900BBE0F900FBE0F901F907F
:100FC00018951F920F920FB60F920BB60F92112425
:100FD0002F933F934F935F936F937F938F939F9341
:100FE000AF93BF93EF93FF93E091C002F091C102E2
:100FF0001995FF91EF91BF91AF919F918F917F9143
:101000006F915F914F913F912F910F900BBE0F9079
:101010000FBE0F901F901895CF93DF931092C500CD
:101020002CE02093C40088E18093C1008EE080937F
:10103000C2008FE19EE49093C7028093C6023BE01A
:101040003093C802259AA0E8B0E03C91326C3C9302
:10105000E1E8F0E030813861308330813160308305
:10106000C6E8D0E0998388839093CA028093C9022E
:101070002093CB02269A2C9122632C932081296104
:10108000208399838883DF91CF910895EF92FF9217
:101090000F931F93CF93DF93C091C902D091CA02DF
:1010A000CE0168E270E00E94FF0B7B010027F7FC95
:1010B0000095102FBE01882777FD8095982F0E94FC
:1010C000F10A23E333E34BE051E40E94560A0E9405
:1010D000BE0A6E197F09800B910B2091B6023091E8
:1010E000B702442737FD4095542F0E94E00B2EE0B5
:1010F00031E040E050E00E94120C2E0D3F1D401FD9
:10110000511FCE01DD230CF4079695958795959593
:10111000879595958795AA2797FDA095BA2F821751
:101120009307A407B5074CF0DA01C9012E153F0556
:101130004007510714F4D801C7012091CB02283091
:1011400009F47AC0293090F42530D1F1263038F4F2
:10115000223009F441C0233009F09DC049C0263037
:1011600009F452C0273009F096C05AC02C3209F455
:1011700087C02D3230F42B3059F02C3009F08BC061
:1011800013C02D3209F470C02E3209F084C060C043
:101190002091860030918700A901481B590B50937C
:1011A00089004093880077C02091860030918700A5
:1011B000A901481B590B50938B0040938A006BC0C8
:1011C0002091960030919700A901481B590B50932C
:1011D0009900409398005FC020919600309197004D
:1011E000A901481B590B50939B0040939A0053C090
:1011F0002091960030919700A901481B590B5093FC
:101200009D0040939C0047C02091A6003091A7000C
:10121000A901481B590B5093A9004093A8003BC05B
:101220002091A6003091A700A901481B590B5093AB
:10123000AB004093AA002FC02091A6003091A700D8
:10124000A901481B590B5093AD004093AC0023C03B
:101250002091260130912701A901481B590B509379
:1012600029014093280117C02091260130912701C0
:10127000A901481B590B50932B0140932A010BC025
:101280002091260130912701A901481B590B509349
:101290002D0140932C01C091C602D091C702CE010E
:1012A00068E270E00E94FF0B7B010027F7FC0095CD
:1012B000102FBE01882777FD8095982F0E94F10A94
:1012C00023E333E34BE051E40E94560A0E94BE0A36
:1012D0006E197F09800B910B2091B4023091B502F9
:1012E000442737FD4095542F0E94E00B2EE031E05B
:1012F00040E050E00E94120C2E0D3F1D401F511F78
:10130000CE01DD230CF407969595879595958795E5
:1013100095958795AA2797FDA095BA2F82179307D1
:10132000A407B5074CF0DA01C9012E153F054007A7
:10133000510714F4D801C7012091C802283009F4DC
:101340007AC0293090F42530D1F1263038F422309B
:1013500009F441C0233009F09DC049C0263009F48A
:1013600052C0273009F096C05AC02C3209F487C009
:101370002D3230F42B3059F02C3009F08BC013C0D3
:101380002D3209F470C02E3209F084C060C0209163
:10139000860030918700A901481B590B50938900A2
:1013A0004093880077C02091860030918700A90182
:1013B000481B590B50938B0040938A006BC02091BF
:1013C000960030919700A901481B590B5093990042
:1013D000409398005FC02091960030919700A9013A
:1013E000481B590B50939B0040939A0053C0209187
:1013F000960030919700A901481B590B50939D000E
:1014000040939C0047C02091A6003091A700A901FD
:10141000481B590B5093A9004093A8003BC0209152
:10142000A6003091A700A901481B590B5093AB00AF
:101430004093AA002FC02091A6003091A700A901D7
:10144000481B590B5093AD004093AC0023C0209132
:10145000260130912701A901481B590B50932901FE
:101460004093280117C02091260130912701A9013E
:10147000481B590B50932B0140932A010BC020911C
:10148000260130912701A901481B590B50932D01CA
:1014900040932C01DF91CF911F910F91FF90EF901E
:1014A00008950E940C080E944608FDCF0CD0EBC0A6
:1014B000E3D040F0DAD030F021F45F3F19F0CCC037
:1014C000511115C1CFC0F0D098F39923C9F355231A
:1014D000B1F3951B550BBB27AA2762177307840727
:1014E00038F09F5F5F4F220F331F441FAA1FA9F3DD
:1014F00033D00E2E3AF0E0E830D091505040E695CF
:10150000001CCAF729D0FE2F27D0660F771F881F2F
:10151000BB1F261737074807AB07B0E809F0BB0B1E
:10152000802DBF01FF2793585F4F2AF09E3F510542
:1015300068F092C0DCC05F3FECF3983EDCF3869528
:1015400077956795B795F7959F5FC9F7880F911DB8
:101550009695879597F90895E1E0660F771F881FA4
:10156000BB1F621773078407BA0720F0621B730B57
:10157000840BBA0BEE1F88F7E095089504D06894A9
:10158000B111B5C0089598D088F09F5790F0B92F49
:101590009927B751A0F0D1F0660F771F881F991FC8
:1015A0001AF0BA95C9F712C0B13081F09FD0B1E0FE
:1015B00008959CC0672F782F8827B85F39F0B93F0E
:1015C000CCF3869577956795B395D9F73EF49095CA
:1015D0008095709561957F4F8F4F9F4F0895E89448
:1015E00009C097FB3EF490958095709561957F4F6B
:1015F0008F4F9F4F9923A9F0F92F96E9BB27939519
:10160000F695879577956795B795F111F8CFFAF428
:10161000BB0F11F460FF1BC06F5F7F4F8F4F9F4F59
:1016200016C0882311F096E911C0772321F09EE8B7
:10163000872F762F05C0662371F096E8862F70E01D
:1016400060E02AF09A95660F771F881FDAF7880FF7
:101650009695879597F9089597F99F6780E870E0C8
:1016600060E008959FEF80EC089500240A94161618
:10167000170618060906089500240A941216130680
:10168000140605060895092E0394000C11F488230E
:1016900052F0BB0F40F4BF2B11F460FF04C06F5F2A
:1016A0007F4F8F4F9F4F089557FD9058440F551F00
:1016B00059F05F3F71F04795880F97FB991F61F0D4
:1016C0009F3F79F087950895121613061406551F4B
:1016D000F2CF4695F1DF08C0161617061806991FB7
:1016E000F1CF86957105610508940895E894BB27AC
:1016F00066277727CB0197F908950BD0C4CFB5DFC4
:1017000028F0BADF18F0952309F0A6CFABCF11244B
:10171000EECFCADFA0F3959FD1F3950F50E0551F90
:10172000629FF001729FBB27F00DB11D639FAA2736
:10173000F00DB11DAA1F649F6627B00DA11D661F85
:10174000829F2227B00DA11D621F739FB00DA11DA6
:10175000621F839FA00D611D221F749F3327A00D60
:10176000611D231F849F600D211D822F762F6A2FFC
:1017700011249F5750408AF0E1F088234AF0EE0F81
:10178000FF1FBB1F661F771F881F91505040A9F78E
:101790009E3F510570F060CFAACF5F3FECF3983EBB
:1017A000DCF3869577956795B795F795E7959F5FF5
:1017B000C1F7FE2B880F911D9695879597F908958F
:1017C000629FD001739FF001829FE00DF11D649F25
:1017D000E00DF11D929FF00D839FF00D749FF00DB1
:1017E000659FF00D9927729FB00DE11DF91F639F52
:1017F000B00DE11DF91FBD01CF011124089597FB24
:10180000092E07260AD077FD04D027D006D0002065
:101810001AF4709561957F4F0895F6F7909581952C
:101820009F4F089597FB092E05260ED057FD04D033
:1018300028D00AD0001C38F4509540953095219559
:101840003F4F4F4F5F4F0895F6F7909580957095F5
:1018500061957F4F8F4F9F4F0895AA1BBB1B51E18E
:1018600007C0AA1FBB1FA617B70710F0A61BB70B10
:10187000881F991F5A95A9F780959095BC01CD01B5
:101880000895A1E21A2EAA1BBB1BFD010DC0AA1FC1
:10189000BB1FEE1FFF1FA217B307E407F50720F0D9
:1018A000A21BB30BE40BF50B661F771F881F991F54
:1018B0001A9469F760957095809590959B01AC019D
:0A18C000BD01CF010895F894FFCF99
:1018CA0000000100040005000500030003000400F5
:1018DA0005000600040005000600070001000000DC
:1018EA0001000000030002000100000006000700DA
:1018FA0000000100020003000400050006000700C2
:10190A0007000600050004000300020001000000B1
:10191A00070002000100000007000600050004009D
:10192A0003000200010000000300020001000000A1
:10193A00000000000000000065656565676568686D
:10194A006868626262626A6A686864646161616145
:10195A006161616163636363636363636467676748
:10196A006C6C6C6C6C6C6C6C626262620000000085
:0C197A00000000006E005A00870087008B
:00000001FF
