:100000000C9472000C94ED0B0C94750A0C94A00ADD
:100010000C94CB0A0C94F60A0C94210B0C944C0B08
:100020000C94770B0C9493000C9493000C94930015
:100030000C9493000C9493000C9493000C949300F4
:100040000C9493000C9493000C9493000C949300E4
:100050000C9493000C9493000C9493000C9431082E
:100060000C9493000C9493000C9493000C949300C4
:100070000C9493000C9493000C9493000C949300B4
:100080000C9493000C9493000C9493000C949300A4
:100090000C9493000C9493000C9493000C94930094
:1000A0000C9493000C9493000C9493000C94930084
:1000B0000C9493000C9493000C9493000C94930074
:1000C0000C9493000C9493000C9493000C94930064
:1000D0000C9493000C9493000C9493000C94930054
:1000E0000C94930011241FBECFEFD1E2DEBFCDBF31
:1000F00000E00CBF12E0A0E0B2E0EEEDFCE100E0B9
:100100000BBF02C007900D92A43BB107D9F712E0D4
:10011000A4EBB2E001C01D92A33CB107E1F70E943D
:10012000E80B0C946D0E0C940000662309F0B8C027
:1001300090E0FC01E858FD4F2081253609F450C0BD
:10014000263640F4233641F12436C0F5223609F034
:100150005EC110C0283609F467C0293620F427365E
:1001600009F055C14FC02A3609F472C02C3609F087
:100170004EC182C024B1FC01EE0FFF1FE050FE4FC4
:1001800081E090E0008002C0880F991F0A94E2F796
:100190008095822384B9089527B1FC01EE0FFF1FDB
:1001A000E050FE4F81E090E0008002C0880F991F70
:1001B0000A94E2F78095822387B908952AB1FC0159
:1001C000EE0FFF1FE050FE4F81E090E0008002C084
:1001D000880F991F0A94E2F7809582238AB90895BF
:1001E0002DB1FC01EE0FFF1FE050FE4F81E090E0CB
:1001F000008002C0880F991F0A94E2F7809582233D
:100200008DB9089523B3FC01EE0FFF1FE050FE4FA0
:1002100081E090E0008002C0880F991F0A94E2F705
:100220008095822383BB0895E1E0F1E02081DC0129
:10023000AA0FBB1FA050BE4F81E090E00C9002C0FF
:10024000880F991F0A94E2F780958223808308958E
:10025000E4E0F1E02081DC01AA0FBB1FA050BE4FFB
:1002600081E090E00C9002C0880F991F0A94E2F799
:100270008095822380830895EAE0F1E02081DC010B
:10028000AA0FBB1FA050BE4F81E090E00C9002C0AF
:10029000880F991F0A94E2F780958223808308953E
:1002A00090E0FC01E858FD4F2081253609F450C04C
:1002B000263640F4233641F12436C0F5223609F0C3
:1002C000A6C010C0283609F467C0293620F42736A6
:1002D00009F09DC04FC02A3609F472C02C3609F0CF
:1002E00096C082C044B1FC01EE0FFF1FE050FE4FEC
:1002F00021E030E0C901008002C0880F991F0A94F4
:10030000E2F7842B84B9089547B1FC01EE0FFF1F7B
:10031000E050FE4F21E030E0C901008002C0880FAC
:10032000991F0A94E2F7842B87B908954AB1FC011A
:10033000EE0FFF1FE050FE4F21E030E0C9010080CA
:1003400002C0880F991F0A94E2F7842B8AB9089596
:100350004DB1FC01EE0FFF1FE050FE4F21E030E0F9
:10036000C901008002C0880F991F0A94E2F7842B0C
:100370008DB9089543B3FC01EE0FFF1FE050FE4F0F
:1003800021E030E0C901008002C0880F991F0A9463
:10039000E2F7842B83BB0895E1E0F1E04081DC01CA
:1003A000AA0FBB1FA050BE4F21E030E0C9010C9046
:1003B00002C0880F991F0A94E2F7842B8083089566
:1003C000E4E0F1E04081DC01AA0FBB1FA050BE4F6A
:1003D00021E030E0C9010C9002C0880F991F0A94F7
:1003E000E2F7842B80830895EAE0F1E04081DC01AC
:1003F000AA0FBB1FA050BE4F21E030E0C9010C90F6
:1004000002C0880F991F0A94E2F7842B8083089515
:10041000662309F0B8C090E0FC01E858FD4F208148
:10042000253609F450C0263640F4233641F12436EF
:10043000C0F5223609F05EC110C0283609F467C045
:10044000293620F4273609F055C14FC02A3609F461
:1004500072C02C3609F04EC182C025B1FC01EE0FEE
:10046000FF1FE050FE4F81E090E0008002C0880F47
:10047000991F0A94E2F78095822385B9089525B1E2
:10048000FC01EE0FFF1FE050FE4F81E090E0008086
:1004900002C0880F991F0A94E2F78095822385B9DC
:1004A00008952BB1FC01EE0FFF1FE050FE4F81E0DD
:1004B00090E0008002C0880F991F0A94E2F78095AF
:1004C00082238BB908952EB1FC01EE0FFF1FE0507F
:1004D000FE4F81E090E0008002C0880F991F0A94CF
:1004E000E2F7809582238EB9089524B3FC01EE0FC4
:1004F000FF1FE050FE4F81E090E0008002C0880FB7
:10050000991F0A94E2F78095822384BB0895E2E064
:10051000F1E02081DC01AA0FBB1FA050BE4F81E09B
:1005200090E00C9002C0880F991F0A94E2F7809522
:10053000822380830895E5E0F1E02081DC01AA0FA9
:10054000BB1FA050BE4F81E090E00C9002C0880F0E
:10055000991F0A94E2F78095822380830895EBE047
:10056000F1E02081DC01AA0FBB1FA050BE4F81E04B
:1005700090E00C9002C0880F991F0A94E2F78095D2
:1005800082238083089590E0FC01E858FD4F20818C
:10059000253609F450C0263640F4233641F124367E
:1005A000C0F5223609F0A6C010C0283609F467C08D
:1005B000293620F4273609F09DC04FC02A3609F4A9
:1005C00072C02C3609F096C082C045B1FC01EE0F16
:1005D000FF1FE050FE4F21E030E0C901008002C063
:1005E000880F991F0A94E2F7842B85B9089548B1C2
:1005F000FC01EE0FFF1FE050FE4F21E030E0C9018B
:10060000008002C0880F991F0A94E2F7842B88B9F2
:1006100008954BB1FC01EE0FFF1FE050FE4F21E0AB
:1006200030E0C901008002C0880F991F0A94E2F7E8
:10063000842B8BB908954EB1FC01EE0FFF1FE050E3
:10064000FE4F21E030E0C901008002C0880F991FF1
:100650000A94E2F7842B8EB9089544B3FC01EE0F9F
:10066000FF1FE050FE4F21E030E0C901008002C0D2
:10067000880F991F0A94E2F7842B84BB0895E2E067
:10068000F1E04081DC01AA0FBB1FA050BE4F21E06A
:1006900030E0C9010C9002C0880F991F0A94E2F75C
:1006A000842B80830895E5E0F1E04081DC01AA0F0E
:1006B000BB1FA050BE4F21E030E0C9010C9002C02A
:1006C000880F991F0A94E2F7842B80830895EBE04A
:1006D000F1E04081DC01AA0FBB1FA050BE4F21E01A
:1006E00030E0C9010C9002C0880F991F0A94E2F70C
:1006F000842B80830895FC01E858FD4F8081853666
:10070000D9F0863638F4833699F0843698F48236F8
:10071000F9F40CC08836A1F0893618F48736C1F494
:100720000DC08A3681F08C3699F410C083B10895DB
:1007300086B1089589B108958CB1089582B3089562
:10074000809100010895809103010895809109012D
:1007500008950E942D0D2AEC37E34BED5BE30E94D8
:10076000E30D20E030E040E05FE30E94E30D0E94F3
:10077000010D08950E942D0D2BE734E14EE25EE35A
:100780000E94E30D20E030E040E05FE30E94E30DD3
:100790000E94010D08958F929F92AF92BF92CF92C7
:1007A000DF92EF92FF920F931F93DF93CF930F92FD
:1007B000CDB7DEB78983E0EBF0E082E8808381E0AB
:1007C00080838981E8E7F2E0E80FF11D80818536BA
:1007D00009F46EC1863650F4833609F487C0843636
:1007E00008F0F5C0823609F04FC30FC08A3609F40D
:1007F00050C28C3609F4CDC2883609F045C3C9C150
:100800000197A109B10951F440C380E291EAA7E040
:10081000B0E000E040E052E011E070E023B12223BC
:1008200071F0E981F0E0EE0FFF1FE40FF51F212FBB
:100830000190F081E02D309719F4202F01C0202F76
:100840004B0130E026173707D9F205C00197A109FF
:10085000B10929F41EC360E072E001E010E023B1A9
:10086000222379F0498150E0440F551F460F571F4E
:10087000202FFA01408151814115510519F4212F92
:1008800001C0212F30E08216930601F720E030E00E
:10089000A901CC2400E012E0BB24B3940AC02F5F6E
:1008A0003F4F4F4F5F4F82179307A407B50709F4D7
:1008B000F4C263B1662379F0E980FF24EE0CFF1CDB
:1008C000E00EF11E6B2DF701E080F180E114F104E0
:1008D00019F46C2D01C06C2D70E086169706F9F2A4
:1008E00027C30197A109B10951F4DBC280E291EA63
:1008F000A7E0B0E000E040E052E011E070E026B197
:10090000222371F0E981F0E0EE0FFF1FE40FF51FE5
:10091000212F0190F081E02D309719F4202F01C094
:10092000202F4B0130E026173707D9F205C0019779
:10093000A109B10929F4B9C260E072E001E010E058
:1009400026B1222379F0498150E0440F551F460F0C
:10095000571F202FFA01408151814115510519F48B
:10096000212F01C0212F30E08216930601F720E0ED
:1009700030E0A901CC2400E012E0BB24B3940AC00B
:100980002F5F3F4F4F4F5F4F82179307A407B50765
:1009900009F48FC266B1662379F0E980FF24EE0C7A
:1009A000FF1CE00EF11E6B2DF701E080F180E114D9
:1009B000F10419F46C2D01C06C2D70E086169706B9
:1009C000F9F2B6C20197A109B10951F476C280E2E9
:1009D00091EAA7E0B0E000E040E052E011E070E012
:1009E00029B1222371F0E981F0E0EE0FFF1FE40F3F
:1009F000F51F212F0190F081E02D309719F4202F61
:100A000001C0202F4B0130E026173707D9F205C06F
:100A10000197A109B10929F454C260E072E001E034
:100A200010E029B1222379F0498150E0440F551F8D
:100A3000460F571F202FFA01408151814115510562
:100A400019F4212F01C0212F30E08216930601F7FF
:100A500020E030E0A901CC2400E012E0BB24B394F4
:100A60000AC02F5F3F4F4F4F5F4F82179307A40776
:100A7000B50709F42AC269B1662379F0E980FF2439
:100A8000EE0CFF1CE00EF11E6B2DF701E080F180F3
:100A9000E114F10419F46C2D01C06C2D70E0861680
:100AA0009706F9F245C20197A109B10951F411C2A3
:100AB00080E291EAA7E0B0E000E040E052E011E01F
:100AC00070E02CB1222371F0E981F0E0EE0FFF1FFE
:100AD000E40FF51F212F0190F081E02D309719F4DC
:100AE000202F01C0202F4B0130E026173707D9F205
:100AF00005C00197A109B10929F4EFC160E072E0D6
:100B000001E010E02CB1222379F0498150E0440F3C
:100B1000551F460F571F202FFA0140815181411563
:100B2000510519F4212F01C0212F30E082169306C0
:100B300001F720E030E0A901CC2400E012E0BB2462
:100B4000B3940AC02F5F3F4F4F4F5F4F82179307F9
:100B5000A407B50709F4C5C16CB1662379F0E98033
:100B6000FF24EE0CFF1CE00EF11E6B2DF701E08060
:100B7000F180E114F10419F46C2D01C06C2D70E0CA
:100B800086169706F9F2D4C10197A109B10969F453
:100B9000ACC180E291EAA7E0B0E020E031E0EE24D1
:100BA00040E052E0CC24C39470E0F901108111239D
:100BB00071F0E981F0E0EE0FFF1FE40FF51F0C2D3F
:100BC0000190F081E02D309719F40E2D01C00E2D0B
:100BD0004B0110E006171707B9F205C00197A109EC
:100BE000B10941F486C140E051E000E012E0CC24BC
:100BF000C394EE24FA012081222379F0698170E008
:100C0000660F771F600F711F2C2DFB0160817181B2
:100C10006115710519F42E2D01C02E2D30E08216BC
:100C20009306E1F620E030E0A90100E011E0BB24EA
:100C30000F2EF0E0CF2EF2E0DF2EF02DAA24A394A9
:100C40000AC02F5F3F4F4F4F5F4F82179307A40794
:100C5000B50709F452C1F8016081662379F0E98093
:100C6000FF24EE0CFF1CEC0CFD1C6A2DF701E0804C
:100C7000F180E114F10419F46B2D01C06B2D70E0CB
:100C800086169706F1F254C10197A109B10969F4DA
:100C900038C180E291EAA7E0B0E023E031E0EE2441
:100CA00040E052E0CC24C39470E0F901108111239C
:100CB00071F0E981F0E0EE0FFF1FE40FF51F0C2D3E
:100CC0000190F081E02D309719F40E2D01C00E2D0A
:100CD0004B0110E006171707B9F205C00197A109EB
:100CE000B10941F412C143E051E000E012E0CC242C
:100CF000C394EE24FA012081222379F0698170E007
:100D0000660F771F600F711F2C2DFB0160817181B1
:100D10006115710519F42E2D01C02E2D30E08216BB
:100D20009306E1F620E030E0A90103E011E0BB24E6
:100D30000F2EF0E0CF2EF2E0DF2EF02DAA24A394A8
:100D40000AC02F5F3F4F4F4F5F4F82179307A40793
:100D5000B50709F4DEC0F8016081662379F0E98007
:100D6000FF24EE0CFF1CEC0CFD1C6A2DF701E0804B
:100D7000F180E114F10419F46B2D01C06B2D70E0CA
:100D800086169706F1F2D4C00197A109B10969F45A
:100D9000C4C080E291EAA7E0B0E029E031E0EE24AF
:100DA00040E052E0CC24C39470E0F901108111239B
:100DB00071F0E981F0E0EE0FFF1FE40FF51F0C2D3D
:100DC0000190F081E02D309719F40E2D01C00E2D09
:100DD0004B0110E006171707B9F205C00197A109EA
:100DE000B10941F49EC049E051E000E012E0CC249A
:100DF000C394EE24FA012081222379F0698170E006
:100E0000660F771F600F711F2C2DFB0160817181B0
:100E10006115710519F42E2D01C02E2D30E08216BA
:100E20009306E1F620E030E0A90109E011E0BB24DF
:100E30000F2EF0E0CF2EF2E0DF2EF02DAA24A394A7
:100E40000AC02F5F3F4F4F4F5F4F82179307A40792
:100E5000B50709F46AC0F8016081662379F0E9807A
:100E6000FF24EE0CFF1CEC0CFD1C6A2DF701E0804A
:100E7000F180E114F10419F46B2D01C06B2D70E0C9
:100E800086169706F1F254C057C020E030E0A90161
:100E90004FC020E030E0A9014BC020E030E0A901C4
:100EA00047C020E030E0A90143C020E030E0A901C4
:100EB0003FC020E030E0A9013BC020E030E0A901C4
:100EC00037C020E030E0A90133C020E030E0A901C4
:100ED0002FC020E030E0A9012BC020E030E0A901C4
:100EE00027C020E030E0A90123C020E030E0A901C4
:100EF0001FC020E030E0A9011BC020E030E0A901C4
:100F000017C020E030E0A90113C020E030E0A901C3
:100F10000FC020E030E0A9010BC020E030E0A901C3
:100F200007C020E030E0A90103C020E030E0A901C3
:100F3000622F732F842F952F0F90CF91DF911F91E8
:100F40000F91FF90EF90DF90CF90BF90AF909F9068
:100F50008F90089580E480937C0086E880937A00E7
:100F60000895CF93DF93CCE7D0E020E42883EAE72D
:100F7000F0E0208120682083288168E070E00E94F2
:100F8000460E282B2883808180688083808180643E
:100F90008083808186FDFDCF20917800309179009B
:100FA000822F932FDF91CF91089593E0909381004A
:100FB00099EA9093800090E087709070813091055D
:100FC00031F470E070938900609388000895823056
:100FD000910529F470E070938B0060938A00089566
:100FE000CF92DF92EF92FF921F9316B56091B402F9
:100FF0007091B5028091B6029091B7022AE037ED68
:1010000043E25EE30E94E30D6B017C01612F70E01F
:10101000882777FD8095982F0E942F0D27E137EBC9
:1010200041ED56E30E94E30D9B01AC01C701B601FF
:101030000E942C0C0E94FC0C862F972F1F91FF9072
:10104000EF90DF90CF90089584B5826084BD84B521
:10105000816084BDEEE6F0E080818160808316BC13
:1010600008951F920F920FB60F920BB60F92112494
:101070002F933F934F935F936F937F938F939F93A0
:10108000AF93BF93EF93FF936091B4027091B50259
:101090008091B6029091B70220E030E040E85FE333
:1010A0000E942C0C6093B4027093B5028093B60238
:1010B0009093B702FF91EF91BF91AF919F918F9164
:1010C0007F916F915F914F913F912F910F900BBE48
:1010D0000F900FBE0F901F9018959B01AC016115EA
:1010E000710581059105A1F060E070E089EF90E065
:1010F0000197F1F700C000006F5F7F4FCB01AA2777
:1011000097FDA095BA2F82179307A407B50770F330
:1011100008959B01AC01611571058105910579F078
:1011200060E070E000006F5F7F4FCB01AA2797FD62
:10113000A095BA2F82179307A407B50798F30895CF
:101140002F923F924F925F926F927F928F929F92D7
:10115000AF92BF92CF92DF92EF92FF920F931F93C5
:10116000DF93CF93CDB7DEB739014A0117012801CC
:101170000E942B0C7B018C01C201B101A4019301DF
:101180000E942B0C0E94FC0C862F972FBC0177230A
:1011900024F466277727681B790B882777FD8095CD
:1011A000982F0E942F0D9B01AC01C801B7010E942E
:1011B000940C3B014C016E897F89888D998DA60125
:1011C00095010E942C0C0E94FC0C862F972FBC01CD
:1011D000772324F466277727681B790B882777FD08
:1011E0008095982F0E942F0D9B01AC01C401B30183
:1011F0000E94E30DCF91DF911F910F91FF90EF902F
:10120000DF90CF90BF90AF909F908F907F906F9026
:101210005F904F903F902F9008956F927F928F92A2
:101220009F92AF92BF92CF92DF92EF92FF920F9375
:101230001F93962E872E782E692ED22EC32EB42E73
:10124000A52E2D2D3C2D4B2D5A2D0E94900C882320
:10125000ACF0692D782D872D962D2E2D3F2D402F0A
:10126000512F0E94DF0D18162CF4DE2CCF2CB02E3F
:10127000A12E04C0D92CC82CB72CA62C6D2D7C2DEA
:101280008B2D9A2D1F910F91FF90EF90DF90CF90B3
:10129000BF90AF909F908F907F906F9008957894BB
:1012A0007093B9026093B8028330910509F47DC050
:1012B0008430910554F481309105C9F18230910553
:1012C0000CF054C0009791F00BC18530910509F4E2
:1012D000AAC0853091050CF487C08630910509F4C9
:1012E000C1C08730910509F0FBC0DBC0E89A4330EC
:1012F000510561F04430510579F04230510591F4C7
:10130000E9E6F0E08081836080830895E9E6F0E01B
:101310008081826080830895E9E6F0E080818160C9
:1013200080830895E9E6F0E0808180830895E99A5A
:101330004330510561F04430510569F042305105A8
:1013400081F4E9E6F0E080818C608083089588E094
:10135000809369000895E9E6F0E0808184608083ED
:101360000895E9E6F0E0808180830895EA9A4330A9
:10137000510561F04430510569F04230510581F466
:10138000E9E6F0E0808180638083089580E28093C5
:1013900069000895E9E6F0E0808180618083089526
:1013A000E9E6F0E0808180830895EB9A43305105AF
:1013B00061F04430510569F04230510581F4E9E6AD
:1013C000F0E08081806C8083089580E880936900DC
:1013D0000895E9E6F0E08081806480830895E9E67D
:1013E000F0E0808180830895EC9A4330510561F0EC
:1013F0004430510569F04230510581F4EAE6F0E0ED
:10140000808183608083089582E080936A000895DC
:10141000EAE6F0E08081816080830895EAE6F0E00A
:10142000808180830895ED9A4330510561F0443006
:10143000510569F04230510581F4EAE6F0E080811F
:101440008C608083089588E080936A000895EAE6BE
:10145000F0E08081846080830895EAE6F0E0808196
:1014600080830895EE9A4330510561F04430510570
:1014700069F04230510581F4EAE6F0E08081806352
:101480008083089580E280936A000895EAE6F0E0A0
:101490008081806180830895EAE6F0E08081808326
:1014A0000895EF9A4330510561F04430510569F0D9
:1014B0004230510581F4EAE6F0E08081806C80835F
:1014C000089580E880936A000895EAE6F0E080815C
:1014D000806480830895EAE6F0E080818083089547
:1014E000E9E6F0E08081808308951F920F920FB6A5
:1014F0000F920BB60F9211242F933F934F935F934C
:101500006F937F938F939F93AF93BF93EF93FF93CB
:10151000E091B802F091B9021995FF91EF91BF9156
:10152000AF919F918F917F916F915F914F913F917B
:101530002F910F900BBE0F900FBE0F901F9018951C
:101540001F920F920FB60F920BB60F9211242F938A
:101550003F934F935F936F937F938F939F93AF933B
:10156000BF93EF93FF93E091B802F091B902199500
:10157000FF91EF91BF91AF919F918F917F916F916B
:101580005F914F913F912F910F900BBE0F900FBE27
:101590000F901F9018951F920F920FB60F920BB6D7
:1015A0000F9211242F933F934F935F936F937F93E9
:1015B0008F939F93AF93BF93EF93FF93E091B80204
:1015C000F091B9021995FF91EF91BF91AF919F9161
:1015D0008F917F916F915F914F913F912F910F90DC
:1015E0000BBE0F900FBE0F901F9018951F920F9279
:1015F0000FB60F920BB60F9211242F933F934F9378
:101600005F936F937F938F939F93AF93BF93EF936A
:10161000FF93E091B802F091B9021995FF91EF9113
:10162000BF91AF919F918F917F916F915F914F91FA
:101630003F912F910F900BBE0F900FBE0F901F90F8
:1016400018951F920F920FB60F920BB60F9211249E
:101650002F933F934F935F936F937F938F939F93BA
:10166000AF93BF93EF93FF93E091B802F091B9026B
:101670001995FF91EF91BF91AF919F918F917F91BC
:101680006F915F914F913F912F910F900BBE0F90F3
:101690000FBE0F901F9018951F920F920FB60F92CA
:1016A0000BB60F9211242F933F934F935F936F9339
:1016B0007F938F939F93AF93BF93EF93FF93E091AB
:1016C000B802F091B9021995FF91EF91BF91AF91D6
:1016D0009F918F917F916F915F914F913F912F914A
:1016E0000F900BBE0F900FBE0F901F9018951F927A
:1016F0000F920FB60F920BB60F9211242F933F93B8
:101700004F935F936F937F938F939F93AF93BF9309
:10171000EF93FF93E091B802F091B9021995FF9110
:10172000EF91BF91AF919F918F917F916F915F9159
:101730004F913F912F910F900BBE0F900FBE0F90C6
:101740001F9018958FEF81B98BEF8AB983ED90E3E5
:101750000197F1F700C00000E89AE9E6F0E0808127
:101760008160808378941092C5008CE08093C400DF
:1017700088E18093C100E0ECF0E0808185FFFDCF3F
:1017800081E08093C60087EA91E60197F1F700C0F7
:1017900000000895589A85E08A95F1F7589880914D
:1017A000C1029091C2026AE370E00E94460E962F39
:1017B0006093BE02E0ECF0E0808185FFFDCF909366
:1017C000C60087EA91E60197F1F700C0000008958E
:1017D0000E94A20B0E94CA0BFDCF1F920F920FB660
:1017E0000F920BB60F9211248F939F93EF93FF9359
:1017F0008091BF029091C0028130910581F41092D6
:101800008100E4E8F0E0808191819093C2028093AE
:10181000C102118210821092C0021092BF02809108
:10182000BF029091C002009759F4E1E8F0E0808196
:101830008160808381E090E09093C0028093BF023A
:10184000FF91EF919F918F910F900BBE0F900FBE64
:101850000F901F9018955058BB27AA270ED075C11E
:1018600066D130F06BD120F031F49F3F11F41EF4BB
:101870005BC10EF4E095E7FB51C1E92F77D180F30E
:10188000BA17620773078407950718F071F49EF57D
:101890008FC10EF4E0950B2EBA2FA02D0B01B901CC
:1018A00090010C01CA01A0011124FF27591B99F0D6
:1018B000593F50F4503E68F11A16F040A22F232FE2
:1018C000342F4427585FF3CF469537952795A79532
:1018D000F0405395C9F77EF41F16BA0B620B730BD9
:1018E000840BBAF09150A1F0FF0FBB1F661F771F4A
:1018F000881FC2F70EC0BA0F621F731F841F48F4FF
:10190000879577956795B795F7959E3F08F0B3CF84
:101910009395880F08F09927EE0F9795879508956E
:10192000D9D008F481E008950CD00FC107D140F060
:10193000FED030F021F45F3F19F0F0C0511139C1F1
:10194000F3C014D198F39923C9F35523B1F3951B30
:10195000550BBB27AA2762177307840738F09F5FD0
:101960005F4F220F331F441FAA1FA9F333D00E2E3F
:101970003AF0E0E830D091505040E695001CCAF7AC
:1019800029D0FE2F27D0660F771F881FBB1F261771
:1019900037074807AB07B0E809F0BB0B802DBF0144
:1019A000FF2793585F4F2AF09E3F510568F0B6C05D
:1019B00000C15F3FECF3983EDCF386957795679521
:1019C000B795F7959F5FC9F7880F911D96958795F5
:1019D00097F90895E1E0660F771F881FBB1F621714
:1019E00073078407BA0720F0621B730B840BBA0BD2
:1019F000EE1F88F7E095089504D06894B111D9C01E
:101A00000895BCD088F09F5790F0B92F9927B7510F
:101A1000A0F0D1F0660F771F881F991F1AF0BA95B2
:101A2000C9F712C0B13081F0C3D0B1E00895C0C091
:101A3000672F782F8827B85F39F0B93FCCF38695A8
:101A400077956795B395D9F73EF490958095709505
:101A500061957F4F8F4F9F4F0895E89409C097FB82
:101A60003EF490958095709561957F4F8F4F9F4F75
:101A70009923A9F0F92F96E9BB279395F6958795B9
:101A800077956795B795F111F8CFFAF4BB0F11F47C
:101A900060FF1BC06F5F7F4F8F4F9F4F16C0882323
:101AA00011F096E911C0772321F09EE8872F762F59
:101AB00005C0662371F096E8862F70E060E02AF09A
:101AC0009A95660F771F881FDAF7880F9695879586
:101AD00097F90895990F0008550FAA0BE0E8FEEF5B
:101AE00016161706E807F907C0F012161306E407E2
:101AF000F50798F0621B730B840B950B39F40A26DB
:101B000061F0232B242B252B21F408950A2609F4B8
:101B1000A140A6958FEF811D811D089597F99F67BC
:101B200080E870E060E008959FEF80EC0895002465
:101B30000A941616170618060906089500240A9432
:101B400012161306140605060895092E0394000CB8
:101B500011F4882352F0BB0F40F4BF2B11F460FF47
:101B600004C06F5F7F4F8F4F9F4F089557FD905870
:101B7000440F551F59F05F3F71F04795880F97FB51
:101B8000991F61F09F3F79F087950895121613060B
:101B90001406551FF2CF4695F1DF08C0161617063A
:101BA0001806991FF1CF869571056105089408956F
:101BB000E894BB2766277727CB0197F908958ADF3A
:101BC00008F48FEF08950BD0C0CFB1DF28F0B6DF57
:101BD00018F0952309F0A2CFA7CF1124EACFC6DFD2
:101BE000A0F3959FD1F3950F50E0551F629FF00130
:101BF000729FBB27F00DB11D639FAA27F00DB11D89
:101C0000AA1F649F6627B00DA11D661F829F222711
:101C1000B00DA11D621F739FB00DA11D621F839F98
:101C2000A00D611D221F749F3327A00D611D231F6E
:101C3000849F600D211D822F762F6A2F11249F57BC
:101C400050408AF0E1F088234AF0EE0FFF1FBB1FDF
:101C5000661F771F881F91505040A9F79E3F51057E
:101C600070F05CCFA6CF5F3FECF3983EDCF3869537
:101C700077956795B795F795E7959F5FC1F7FE2B29
:101C8000880F911D9695879597F9089597FB092ED2
:101C900007260AD077FD04D00CD006D000201AF415
:101CA000709561957F4F0895F6F7909581959F4FB8
:101CB0000895AA1BBB1B51E107C0AA1FBB1FA61793
:101CC000B70710F0A61BB70B881F991F5A95A9F7E5
:0E1CD00080959095BC01CD010895F894FFCF4A
:101CDE0000000100040005000500030003000400DD
:101CEE0005000600040005000600070001000000C4
:101CFE0001000000030002000100000006000700C2
:101D0E0000000100020003000400050006000700A9
:101D1E000700060005000400030002000100000099
:101D2E000700020001000000070006000500040085
:101D3E000300020001000000030002000100000089
:101D4E000000000000000000656565656765686855
:101D5E006868626262626A6A68686464616161612D
:101D6E006161616163636363636363636467676730
:101D7E006C6C6C6C6C6C6C6C62626262000000006D
:041D8E000000000051
:00000001FF
